{
  "address": "0x6DD5fbF8CD9D3FbB4a1d0b77bC0613cfBa1472eb",
  "abi": [
    {
      "inputs": [
        {
          "internalType": "address payable",
          "name": "diceGameAddress",
          "type": "address"
        }
      ],
      "stateMutability": "nonpayable",
      "type": "constructor"
    },
    {
      "anonymous": false,
      "inputs": [
        {
          "indexed": true,
          "internalType": "address",
          "name": "previousOwner",
          "type": "address"
        },
        {
          "indexed": true,
          "internalType": "address",
          "name": "newOwner",
          "type": "address"
        }
      ],
      "name": "OwnershipTransferred",
      "type": "event"
    },
    {
      "inputs": [],
      "name": "diceGame",
      "outputs": [
        {
          "internalType": "contract DiceGame",
          "name": "",
          "type": "address"
        }
      ],
      "stateMutability": "view",
      "type": "function"
    },
    {
      "inputs": [],
      "name": "owner",
      "outputs": [
        {
          "internalType": "address",
          "name": "",
          "type": "address"
        }
      ],
      "stateMutability": "view",
      "type": "function"
    },
    {
      "inputs": [],
      "name": "renounceOwnership",
      "outputs": [],
      "stateMutability": "nonpayable",
      "type": "function"
    },
    {
      "inputs": [],
      "name": "riggedRoll",
      "outputs": [],
      "stateMutability": "nonpayable",
      "type": "function"
    },
    {
      "inputs": [
        {
          "internalType": "address",
          "name": "newOwner",
          "type": "address"
        }
      ],
      "name": "transferOwnership",
      "outputs": [],
      "stateMutability": "nonpayable",
      "type": "function"
    },
    {
      "inputs": [
        {
          "internalType": "address",
          "name": "to_",
          "type": "address"
        },
        {
          "internalType": "uint256",
          "name": "amount_",
          "type": "uint256"
        }
      ],
      "name": "withdraw",
      "outputs": [],
      "stateMutability": "nonpayable",
      "type": "function"
    },
    {
      "stateMutability": "payable",
      "type": "receive"
    }
  ],
  "transactionHash": "0x925c3823872a6a2d2a7cd8ad2192d744f5f446982d7404e02fcc547c4a32c738",
  "args": [
    "0x6b552E8bE724c5d098E16B61077f19d0eEa28b1B"
  ],
  "numDeployments": 1,
  "solcInputHash": "eba0f50b136a89583e62bfc22b6ded7b",
  "bytecode": "0x608060405234801561001057600080fd5b506040516108a43803806108a483398101604081905261002f916100ad565b6100383361005d565b600180546001600160a01b0319166001600160a01b03929092169190911790556100dd565b600080546001600160a01b038381166001600160a01b0319831681178455604051919092169283917f8be0079c531659141344cd1fd0a4f28419497f9722a3daafe3b4186f6b6457e09190a35050565b6000602082840312156100bf57600080fd5b81516001600160a01b03811681146100d657600080fd5b9392505050565b6107b8806100ec6000396000f3fe6080604052600436106100595760003560e01c80636b5e97f814610065578063715018a61461007c5780638da5cb5b146100915780638e288fd1146100c7578063f2fde38b146100e7578063f3fef3a31461010757600080fd5b3661006057005b600080fd5b34801561007157600080fd5b5061007a610127565b005b34801561008857600080fd5b5061007a6103a5565b34801561009d57600080fd5b506000546001600160a01b03165b6040516001600160a01b03909116815260200160405180910390f35b3480156100d357600080fd5b506001546100ab906001600160a01b031681565b3480156100f357600080fd5b5061007a610102366004610659565b6103b9565b34801561011357600080fd5b5061007a61012236600461067b565b610432565b66071afd498d00004710156101925760405162461bcd60e51b815260206004820152602660248201527f4661696c656420746f206861766520302e30303220657468657220696e2062616044820152653630b731b29760d11b60648201526084015b60405180910390fd5b600061019f6001436106a5565b4090506000600160009054906101000a90046001600160a01b03166001600160a01b031663affed0e06040518163ffffffff1660e01b8152600401602060405180830381865afa1580156101f7573d6000803e3d6000fd5b505050506040513d601f19601f8201168201806040525081019061021b91906106cc565b600154604080516020810186905260609290921b6bffffffffffffffffffffffff1916908201526054810182905290915060009060740160408051601f198184030181529190528051602090910120905060006102796010836106e5565b90506102a86040518060400160405280600b81526020016a54686520726f6c6c20697360a81b815250826104e2565b60058111156102f95760405162461bcd60e51b815260206004820152601f60248201527f54686520726f6c6c2069732061206c6f73657220736f206261696c696e672e006044820152606401610189565b61032f6040518060400160405280601581526020017454686520726f6c6c20697320612077696e6e65722160581b81525061052b565b600160009054906101000a90046001600160a01b03166001600160a01b0316637d789dee66071afd498d00006040518263ffffffff1660e01b81526004016000604051808303818588803b15801561038657600080fd5b505af115801561039a573d6000803e3d6000fd5b505050505050505050565b6103ad61056e565b6103b760006105c8565b565b6103c161056e565b6001600160a01b0381166104265760405162461bcd60e51b815260206004820152602660248201527f4f776e61626c653a206e6577206f776e657220697320746865207a65726f206160448201526564647265737360d01b6064820152608401610189565b61042f816105c8565b50565b61043a61056e565b6000826001600160a01b03168260405160006040518083038185875af1925050503d8060008114610487576040519150601f19603f3d011682016040523d82523d6000602084013e61048c565b606091505b50509050806104dd5760405162461bcd60e51b815260206004820152601960248201527f4661696c656420746f2077697468647261772065746865722e000000000000006044820152606401610189565b505050565b61052782826040516024016104f892919061074d565b60408051601f198184030181529190526020810180516001600160e01b0316632d839cb360e21b179052610618565b5050565b61042f8160405160240161053f919061076f565b60408051601f198184030181529190526020810180516001600160e01b031663104c13eb60e21b179052610618565b6000546001600160a01b031633146103b75760405162461bcd60e51b815260206004820181905260248201527f4f776e61626c653a2063616c6c6572206973206e6f7420746865206f776e65726044820152606401610189565b600080546001600160a01b038381166001600160a01b0319831681178455604051919092169283917f8be0079c531659141344cd1fd0a4f28419497f9722a3daafe3b4186f6b6457e09190a35050565b61042f8160006a636f6e736f6c652e6c6f679050600080835160208501845afa505050565b80356001600160a01b038116811461065457600080fd5b919050565b60006020828403121561066b57600080fd5b6106748261063d565b9392505050565b6000806040838503121561068e57600080fd5b6106978361063d565b946020939093013593505050565b818103818111156106c657634e487b7160e01b600052601160045260246000fd5b92915050565b6000602082840312156106de57600080fd5b5051919050565b60008261070257634e487b7160e01b600052601260045260246000fd5b500690565b6000815180845260005b8181101561072d57602081850181015186830182015201610711565b506000602082860101526020601f19601f83011685010191505092915050565b6040815260006107606040830185610707565b90508260208301529392505050565b602081526000610674602083018461070756fea2646970667358221220bb7ec297867ed2e6349c5d150862fdb499c262adb36111028dd4e6a6c16ef80964736f6c63430008110033",
  "devdoc": {
    "kind": "dev",
    "methods": {
      "owner()": {
        "details": "Returns the address of the current owner."
      },
      "renounceOwnership()": {
        "details": "Leaves the contract without owner. It will not be possible to call `onlyOwner` functions anymore. Can only be called by the current owner. NOTE: Renouncing ownership will leave the contract without an owner, thereby removing any functionality that is only available to the owner."
      },
      "transferOwnership(address)": {
        "details": "Transfers ownership of the contract to a new account (`newOwner`). Can only be called by the current owner."
      }
    },
    "version": 1
  },
  "userdoc": {
    "kind": "user",
    "methods": {},
    "version": 1
  },
  "storageLayout": {
    "storage": [
      {
        "astId": 7,
        "contract": "contracts/RiggedRoll.sol:RiggedRoll",
        "label": "_owner",
        "offset": 0,
        "slot": "0",
        "type": "t_address"
      },
      {
        "astId": 308,
        "contract": "contracts/RiggedRoll.sol:RiggedRoll",
        "label": "diceGame",
        "offset": 0,
        "slot": "1",
        "type": "t_contract(DiceGame)298"
      }
    ],
    "types": {
      "t_address": {
        "encoding": "inplace",
        "label": "address",
        "numberOfBytes": "20"
      },
      "t_contract(DiceGame)298": {
        "encoding": "inplace",
        "label": "contract DiceGame",
        "numberOfBytes": "20"
      }
    }
  }
}