{
  "address": "0x3A352c33cf1D7D988137cd807f450964D3f8AB61",
  "abi": [
    {
      "inputs": [
        {
          "internalType": "address",
          "name": "exampleExternalContractAddress",
          "type": "address"
        }
      ],
      "stateMutability": "nonpayable",
      "type": "constructor"
    },
    {
      "anonymous": false,
      "inputs": [
        {
          "indexed": true,
          "internalType": "address",
          "name": "staker",
          "type": "address"
        },
        {
          "indexed": false,
          "internalType": "uint256",
          "name": "stake",
          "type": "uint256"
        }
      ],
      "name": "Stake",
      "type": "event"
    },
    {
      "inputs": [
        {
          "internalType": "address",
          "name": "",
          "type": "address"
        }
      ],
      "name": "balances",
      "outputs": [
        {
          "internalType": "uint256",
          "name": "",
          "type": "uint256"
        }
      ],
      "stateMutability": "view",
      "type": "function"
    },
    {
      "inputs": [],
      "name": "deadline",
      "outputs": [
        {
          "internalType": "uint256",
          "name": "",
          "type": "uint256"
        }
      ],
      "stateMutability": "view",
      "type": "function"
    },
    {
      "inputs": [],
      "name": "exampleExternalContract",
      "outputs": [
        {
          "internalType": "contract ExampleExternalContract",
          "name": "",
          "type": "address"
        }
      ],
      "stateMutability": "view",
      "type": "function"
    },
    {
      "inputs": [],
      "name": "execute",
      "outputs": [],
      "stateMutability": "nonpayable",
      "type": "function"
    },
    {
      "inputs": [],
      "name": "getTotalBanalce",
      "outputs": [
        {
          "internalType": "uint256",
          "name": "",
          "type": "uint256"
        }
      ],
      "stateMutability": "view",
      "type": "function"
    },
    {
      "inputs": [],
      "name": "stake",
      "outputs": [],
      "stateMutability": "payable",
      "type": "function"
    },
    {
      "inputs": [],
      "name": "threshold",
      "outputs": [
        {
          "internalType": "uint256",
          "name": "",
          "type": "uint256"
        }
      ],
      "stateMutability": "view",
      "type": "function"
    },
    {
      "inputs": [],
      "name": "timeLeft",
      "outputs": [
        {
          "internalType": "uint256",
          "name": "timer",
          "type": "uint256"
        }
      ],
      "stateMutability": "view",
      "type": "function"
    },
    {
      "inputs": [],
      "name": "withdraw",
      "outputs": [],
      "stateMutability": "nonpayable",
      "type": "function"
    },
    {
      "stateMutability": "payable",
      "type": "receive"
    }
  ],
  "transactionHash": "0x9767d571b19adf6f8e4d6ddb931fb92faed6ceabbc670b5b4d9fd5dcfc0aeb29",
  "args": [
    "0xF0B0420AD903dF7Af9509a281E643B1643F234aA"
  ],
  "numDeployments": 1,
  "solcInputHash": "7cb886d8e649c081dae8211ec3ade82c",
  "bytecode": "0x6080604052610011426203f480610092565b60005534801561002057600080fd5b506040516106ed3803806106ed83398101604081905261003f91610064565b600280546001600160a01b0319166001600160a01b03929092169190911790556100b6565b600060208284031215610075578081fd5b81516001600160a01b038116811461008b578182fd5b9392505050565b600082198211156100b157634e487b7160e01b81526011600452602481fd5b500190565b610628806100c56000396000f3fe60806040526004361061008a5760003560e01c80633ccfd60b116100595780633ccfd60b1461011157806342cde4e81461012657806361461954146101425780639f75f22714610157578063bc07d8061461018f57600080fd5b80631300a6d11461009e57806327e235e3146100c657806329dcb0cf146100f35780633a4b66f11461010957600080fd5b36610099576100976101a2565b005b600080fd5b3480156100aa57600080fd5b506100b361024c565b6040519081526020015b60405180910390f35b3480156100d257600080fd5b506100b36100e136600461055f565b60016020526000908152604090205481565b3480156100ff57600080fd5b506100b360005481565b6100976101a2565b34801561011d57600080fd5b5061009761027b565b34801561013257600080fd5b506100b3670de0b6b3a764000081565b34801561014e57600080fd5b506100976103c1565b34801561016357600080fd5b50600254610177906001600160a01b031681565b6040516001600160a01b0390911681526020016100bd565b34801561019b57600080fd5b50476100b3565b6000544211156101f15760405162461bcd60e51b8152602060048201526015602482015274111958591b1a5b99481a185cc81899595b881b595d605a1b60448201526064015b60405180910390fd5b33600090815260016020526040812080543492906102109084906105ad565b909155505060405134815233907febedb8b3c678666e7f36970bc8f57abf6d8fa2e828c0da91ea5b75bf68ed101a9060200160405180910390a2565b600080544211610269574260005461026491906105c5565b905090565b60005442106102785750600090565b90565b670de0b6b3a764000047106102cb5760405162461bcd60e51b8152602060048201526016602482015275151a1c995cda1bdb19081a185cc81899595b8813595d60521b60448201526064016101e8565b33600090815260016020526040902054806103215760405162461bcd60e51b81526020600482015260166024820152754e6f2062616c616e636520746f20776974686472617760501b60448201526064016101e8565b336000818152600160205260408082208290555190919083908381818185875af1925050503d8060008114610372576040519150601f19603f3d011682016040523d82523d6000602084013e610377565b606091505b50509050806103bd5760405162461bcd60e51b815260206004820152601260248201527108cc2d2d8cac840e8de40e6cadcc8408ae8d60731b60448201526064016101e8565b5050565b60005442116104055760405162461bcd60e51b815260206004820152601060248201526f111958591b1a5b99481b9bdd0813595d60821b60448201526064016101e8565b600260009054906101000a90046001600160a01b03166001600160a01b0316639d9a7fe96040518163ffffffff1660e01b815260040160206040518083038186803b15801561045357600080fd5b505afa158015610467573d6000803e3d6000fd5b505050506040513d601f19601f8201168201806040525081019061048b919061058d565b156104e45760405162461bcd60e51b8152602060048201526024808201527f4578616d706c6545787465726e616c436f6e747261637420697320636f6d706c604482015263195d195960e21b60648201526084016101e8565b670de0b6b3a7640000471061055d57600260009054906101000a90046001600160a01b03166001600160a01b031663522e1177476040518263ffffffff1660e01b81526004016000604051808303818588803b15801561054357600080fd5b505af1158015610557573d6000803e3d6000fd5b50505050505b565b600060208284031215610570578081fd5b81356001600160a01b0381168114610586578182fd5b9392505050565b60006020828403121561059e578081fd5b81518015158114610586578182fd5b600082198211156105c0576105c06105dc565b500190565b6000828210156105d7576105d76105dc565b500390565b634e487b7160e01b600052601160045260246000fdfea2646970667358221220efc003239063b1fabadd7fc50bc99454eefead45871ae50fe54aa74bd915c90264736f6c63430008040033",
  "devdoc": {
    "kind": "dev",
    "methods": {},
    "version": 1
  },
  "userdoc": {
    "kind": "user",
    "methods": {},
    "version": 1
  },
  "storageLayout": {
    "storage": [
      {
        "astId": 25,
        "contract": "contracts/Staker.sol:Staker",
        "label": "deadline",
        "offset": 0,
        "slot": "0",
        "type": "t_uint256"
      },
      {
        "astId": 35,
        "contract": "contracts/Staker.sol:Staker",
        "label": "balances",
        "offset": 0,
        "slot": "1",
        "type": "t_mapping(t_address,t_uint256)"
      },
      {
        "astId": 38,
        "contract": "contracts/Staker.sol:Staker",
        "label": "exampleExternalContract",
        "offset": 0,
        "slot": "2",
        "type": "t_contract(ExampleExternalContract)12"
      }
    ],
    "types": {
      "t_address": {
        "encoding": "inplace",
        "label": "address",
        "numberOfBytes": "20"
      },
      "t_contract(ExampleExternalContract)12": {
        "encoding": "inplace",
        "label": "contract ExampleExternalContract",
        "numberOfBytes": "20"
      },
      "t_mapping(t_address,t_uint256)": {
        "encoding": "mapping",
        "key": "t_address",
        "label": "mapping(address => uint256)",
        "numberOfBytes": "32",
        "value": "t_uint256"
      },
      "t_uint256": {
        "encoding": "inplace",
        "label": "uint256",
        "numberOfBytes": "32"
      }
    }
  }
}